{
  "contractName": "StorageIjazah",
  "abi": [
    {
      "inputs": [
        {
          "internalType": "uint256",
          "name": "",
          "type": "uint256"
        }
      ],
      "name": "ijazahs",
      "outputs": [
        {
          "internalType": "uint256",
          "name": "id",
          "type": "uint256"
        },
        {
          "internalType": "string",
          "name": "nama",
          "type": "string"
        },
        {
          "internalType": "string",
          "name": "ipk",
          "type": "string"
        },
        {
          "internalType": "string",
          "name": "universitas",
          "type": "string"
        },
        {
          "internalType": "bytes32",
          "name": "uniqueHash",
          "type": "bytes32"
        }
      ],
      "stateMutability": "view",
      "type": "function"
    },
    {
      "inputs": [],
      "name": "nextIjazahId",
      "outputs": [
        {
          "internalType": "uint256",
          "name": "",
          "type": "uint256"
        }
      ],
      "stateMutability": "view",
      "type": "function"
    },
    {
      "inputs": [
        {
          "internalType": "string",
          "name": "_nama",
          "type": "string"
        },
        {
          "internalType": "string",
          "name": "_ipk",
          "type": "string"
        },
        {
          "internalType": "string",
          "name": "_universitas",
          "type": "string"
        }
      ],
      "name": "createIjazah",
      "outputs": [],
      "stateMutability": "nonpayable",
      "type": "function"
    },
    {
      "inputs": [],
      "name": "getAllIjazahs",
      "outputs": [
        {
          "components": [
            {
              "internalType": "uint256",
              "name": "id",
              "type": "uint256"
            },
            {
              "internalType": "string",
              "name": "nama",
              "type": "string"
            },
            {
              "internalType": "string",
              "name": "ipk",
              "type": "string"
            },
            {
              "internalType": "string",
              "name": "universitas",
              "type": "string"
            },
            {
              "internalType": "bytes32",
              "name": "uniqueHash",
              "type": "bytes32"
            }
          ],
          "internalType": "struct StorageIjazah.IjazahData[]",
          "name": "",
          "type": "tuple[]"
        }
      ],
      "stateMutability": "view",
      "type": "function"
    },
    {
      "inputs": [
        {
          "internalType": "uint256",
          "name": "_id",
          "type": "uint256"
        },
        {
          "internalType": "bytes32",
          "name": "_uniqueHash",
          "type": "bytes32"
        }
      ],
      "name": "getIjazahByIdAnduniqueHash",
      "outputs": [
        {
          "internalType": "string",
          "name": "",
          "type": "string"
        },
        {
          "internalType": "string",
          "name": "",
          "type": "string"
        },
        {
          "internalType": "string",
          "name": "",
          "type": "string"
        }
      ],
      "stateMutability": "view",
      "type": "function"
    },
    {
      "inputs": [
        {
          "internalType": "uint256",
          "name": "_id",
          "type": "uint256"
        },
        {
          "internalType": "bytes32",
          "name": "_uniqueHash",
          "type": "bytes32"
        }
      ],
      "name": "updateuniqueHash",
      "outputs": [],
      "stateMutability": "nonpayable",
      "type": "function"
    },
    {
      "inputs": [
        {
          "internalType": "uint256",
          "name": "_id",
          "type": "uint256"
        },
        {
          "internalType": "string",
          "name": "_nama",
          "type": "string"
        }
      ],
      "name": "updateNama",
      "outputs": [],
      "stateMutability": "nonpayable",
      "type": "function"
    },
    {
      "inputs": [
        {
          "internalType": "uint256",
          "name": "_id",
          "type": "uint256"
        },
        {
          "internalType": "string",
          "name": "_nama",
          "type": "string"
        },
        {
          "internalType": "string",
          "name": "_ipk",
          "type": "string"
        },
        {
          "internalType": "string",
          "name": "_universitas",
          "type": "string"
        },
        {
          "internalType": "bytes32",
          "name": "_uniqueHash",
          "type": "bytes32"
        }
      ],
      "name": "updateData",
      "outputs": [],
      "stateMutability": "nonpayable",
      "type": "function"
    },
    {
      "inputs": [
        {
          "internalType": "uint256",
          "name": "_id",
          "type": "uint256"
        }
      ],
      "name": "deleteIjazah",
      "outputs": [],
      "stateMutability": "nonpayable",
      "type": "function"
    }
  ],
  "bytecode": "0x6080604052600060015534801561001557600080fd5b506110a1806100256000396000f3fe608060405234801561001057600080fd5b50600436106100935760003560e01c80637d660892116100665780637d6608921461010257806397d325eb14610115578063b9867cbf14610128578063c4e09ffb1461013b578063d3a65f4e1461015057610093565b8063022b42e5146100985780633984910c146100ad5780636a409761146100da578063744b1049146100ed575b600080fd5b6100ab6100a6366004610ccc565b610172565b005b6100c06100bb366004610c93565b6101c4565b6040516100d1959493929190610f80565b60405180910390f35b6100ab6100e8366004610d11565b61038b565b6100f5610433565b6040516100d19190610e14565b6100ab610110366004610c93565b6106ce565b6100ab610123366004610cab565b610737565b6100ab610136366004610c0f565b61076d565b610143610857565b6040516100d19190610f77565b61016361015e366004610cab565b61085d565b6040516100d193929190610ec8565b600154821061019c5760405162461bcd60e51b815260040161019390610f0b565b60405180910390fd5b60008281526020818152604090912082516101bf92600190920191840190610a84565b505050565b600060208190529081526040902080546001820180549192916101e690610fe9565b80601f016020809104026020016040519081016040528092919081815260200182805461021290610fe9565b801561025f5780601f106102345761010080835404028352916020019161025f565b820191906000526020600020905b81548152906001019060200180831161024257829003601f168201915b50505050509080600201805461027490610fe9565b80601f01602080910402602001604051908101604052809291908181526020018280546102a090610fe9565b80156102ed5780601f106102c2576101008083540402835291602001916102ed565b820191906000526020600020905b8154815290600101906020018083116102d057829003601f168201915b50505050509080600301805461030290610fe9565b80601f016020809104026020016040519081016040528092919081815260200182805461032e90610fe9565b801561037b5780601f106103505761010080835404028352916020019161037b565b820191906000526020600020905b81548152906001019060200180831161035e57829003601f168201915b5050505050908060040154905085565b60015485106103ac5760405162461bcd60e51b815260040161019390610f0b565b60008581526020818152604090912085516103cf92600190920191870190610a84565b5060008581526020818152604090912084516103f392600290920191860190610a84565b50600085815260208181526040909120835161041792600390920191850190610a84565b5060009485526020859052604090942060040193909355505050565b6060600060015467ffffffffffffffff81111561046057634e487b7160e01b600052604160045260246000fd5b60405190808252806020026020018201604052801561049957816020015b610486610b08565b81526020019060019003908161047e5790505b50905060005b6001548110156106c85760008181526020818152604091829020825160a081019093528054835260018101805491928401916104da90610fe9565b80601f016020809104026020016040519081016040528092919081815260200182805461050690610fe9565b80156105535780601f1061052857610100808354040283529160200191610553565b820191906000526020600020905b81548152906001019060200180831161053657829003601f168201915b5050505050815260200160028201805461056c90610fe9565b80601f016020809104026020016040519081016040528092919081815260200182805461059890610fe9565b80156105e55780601f106105ba576101008083540402835291602001916105e5565b820191906000526020600020905b8154815290600101906020018083116105c857829003601f168201915b505050505081526020016003820180546105fe90610fe9565b80601f016020809104026020016040519081016040528092919081815260200182805461062a90610fe9565b80156106775780601f1061064c57610100808354040283529160200191610677565b820191906000526020600020905b81548152906001019060200180831161065a57829003601f168201915b505050505081526020016004820154815250508282815181106106aa57634e487b7160e01b600052603260045260246000fd5b602002602001018190525080806106c090611024565b91505061049f565b50905090565b60015481106106ef5760405162461bcd60e51b815260040161019390610f0b565b60008181526020819052604081208181559061070e6001830182610b3a565b61071c600283016000610b3a565b61072a600383016000610b3a565b6004820160009055505050565b60015482106107585760405162461bcd60e51b815260040161019390610f0b565b60009182526020829052604090912060040155565b60003361077b600143610fd2565b4060405160200161078d929190610df2565b60408051601f19818403018152828252805160209182012060a084018352600180548086528584018a81528686018a90526060870189905260808701849052600091825281855294902085518155935180519296508594936107f59392850192910190610a84565b5060408201518051610811916002840191602090910190610a84565b506060820151805161082d916003840191602090910190610a84565b50608091909101516004909101556001805490600061084b83611024565b91905055505050505050565b60015481565b606080606060015485106108835760405162461bcd60e51b815260040161019390610f0b565b60008581526020819052604090206004015484146108b35760405162461bcd60e51b815260040161019390610f36565b60008581526020819052604090206001810180549091600281019160039091019083906108df90610fe9565b80601f016020809104026020016040519081016040528092919081815260200182805461090b90610fe9565b80156109585780601f1061092d57610100808354040283529160200191610958565b820191906000526020600020905b81548152906001019060200180831161093b57829003601f168201915b5050505050925081805461096b90610fe9565b80601f016020809104026020016040519081016040528092919081815260200182805461099790610fe9565b80156109e45780601f106109b9576101008083540402835291602001916109e4565b820191906000526020600020905b8154815290600101906020018083116109c757829003601f168201915b505050505091508080546109f790610fe9565b80601f0160208091040260200160405190810160405280929190818152602001828054610a2390610fe9565b8015610a705780601f10610a4557610100808354040283529160200191610a70565b820191906000526020600020905b815481529060010190602001808311610a5357829003601f168201915b505050505090509250925092509250925092565b828054610a9090610fe9565b90600052602060002090601f016020900481019282610ab25760008555610af8565b82601f10610acb57805160ff1916838001178555610af8565b82800160010185558215610af8579182015b82811115610af8578251825591602001919060010190610add565b50610b04929150610b79565b5090565b6040518060a0016040528060008152602001606081526020016060815260200160608152602001600080191681525090565b508054610b4690610fe9565b6000825580601f10610b585750610b76565b601f016020900490600052602060002090810190610b769190610b79565b50565b5b80821115610b045760008155600101610b7a565b600082601f830112610b9e578081fd5b813567ffffffffffffffff80821115610bb957610bb9611055565b604051601f8301601f191681016020018281118282101715610bdd57610bdd611055565b604052828152848301602001861015610bf4578384fd5b82602086016020830137918201602001929092529392505050565b600080600060608486031215610c23578283fd5b833567ffffffffffffffff80821115610c3a578485fd5b610c4687838801610b8e565b94506020860135915080821115610c5b578384fd5b610c6787838801610b8e565b93506040860135915080821115610c7c578283fd5b50610c8986828701610b8e565b9150509250925092565b600060208284031215610ca4578081fd5b5035919050565b60008060408385031215610cbd578182fd5b50508035926020909101359150565b60008060408385031215610cde578182fd5b82359150602083013567ffffffffffffffff811115610cfb578182fd5b610d0785828601610b8e565b9150509250929050565b600080600080600060a08688031215610d28578081fd5b85359450602086013567ffffffffffffffff80821115610d46578283fd5b610d5289838a01610b8e565b95506040880135915080821115610d67578283fd5b610d7389838a01610b8e565b94506060880135915080821115610d88578283fd5b50610d9588828901610b8e565b95989497509295608001359392505050565b60008151808452815b81811015610dcc57602081850181015186830182015201610db0565b81811115610ddd5782602083870101525b50601f01601f19169290920160200192915050565b60609290921b6bffffffffffffffffffffffff19168252601482015260340190565b60208082528251828201819052600091906040908185019080840286018301878501865b83811015610eba57603f19898403018552815160a08151855288820151818a870152610e6682870182610da7565b9150508782015185820389870152610e7e8282610da7565b91505060608083015186830382880152610e988382610da7565b6080948501519790940196909652505094870194925090860190600101610e38565b509098975050505050505050565b600060608252610edb6060830186610da7565b8281036020840152610eed8186610da7565b90508281036040840152610f018185610da7565b9695505050505050565b602080825260119082015270125b9d985b1a5908125a985e985a081251607a1b604082015260600190565b60208082526021908201527f494420616e6420756e69717565206861736820646f6573206e6f74206d6174636040820152600d60fb1b606082015260800190565b90815260200190565b600086825260a06020830152610f9960a0830187610da7565b8281036040840152610fab8187610da7565b90508281036060840152610fbf8186610da7565b9150508260808301529695505050505050565b600082821015610fe457610fe461103f565b500390565b600281046001821680610ffd57607f821691505b6020821081141561101e57634e487b7160e01b600052602260045260246000fd5b50919050565b60006000198214156110385761103861103f565b5060010190565b634e487b7160e01b600052601160045260246000fd5b634e487b7160e01b600052604160045260246000fdfea2646970667358221220c6772bf75a3e1cca6d208375e6bb05eea4bd37182b5374f2c4e0327cd2cde13964736f6c63430008000033",
  "immutableReferences": {},
  "source": "// SPDX-License-Identifier: MIT\r\npragma solidity ^0.8.0;\r\n\r\ncontract StorageIjazah {\r\n    struct IjazahData {\r\n        uint256 id;\r\n        string nama;\r\n        string ipk;\r\n        string universitas;\r\n        bytes32 uniqueHash;\r\n    }\r\n\r\n    mapping (uint256 => IjazahData) public ijazahs;\r\n    uint256 public nextIjazahId = 0;\r\n\r\n    function createIjazah(string memory _nama, string memory _ipk, string memory _universitas) public {\r\n        bytes32 uniqueHash = keccak256(abi.encodePacked(msg.sender, blockhash(block.number - 1)));\r\n        IjazahData memory newIjazah = IjazahData({\r\n            id: nextIjazahId,\r\n            nama: _nama,\r\n            ipk: _ipk,\r\n            universitas: _universitas,\r\n            uniqueHash: uniqueHash\r\n        });\r\n        ijazahs[nextIjazahId] = newIjazah;\r\n        nextIjazahId++;\r\n    }\r\n\r\n    function getAllIjazahs() public view returns (IjazahData[] memory) {\r\n        IjazahData[] memory allIjazahs = new IjazahData[](nextIjazahId);\r\n        for (uint256 i = 0; i < nextIjazahId; i++) {\r\n            allIjazahs[i] = ijazahs[i];\r\n        }\r\n        return allIjazahs;\r\n    }\r\n\r\n    function getIjazahByIdAnduniqueHash(uint256 _id, bytes32 _uniqueHash) public view returns (string memory, string memory, string memory) {\r\n        require(_id < nextIjazahId, \"Invalid Ijazah ID\");\r\n        require(ijazahs[_id].uniqueHash == _uniqueHash, \"ID and unique hash does not match\");\r\n        return (ijazahs[_id].nama, ijazahs[_id].ipk, ijazahs[_id].universitas);\r\n    }\r\n\r\n    function updateuniqueHash(uint256 _id, bytes32 _uniqueHash) public {\r\n        require(_id < nextIjazahId, \"Invalid Ijazah ID\");\r\n        ijazahs[_id].uniqueHash = _uniqueHash;\r\n    }\r\n\r\n    function updateNama(uint256 _id, string memory _nama) public {\r\n        require(_id < nextIjazahId, \"Invalid Ijazah ID\");\r\n        ijazahs[_id].nama = _nama;\r\n    }\r\n\r\n    function updateData(uint256 _id, string memory _nama, string memory _ipk, string memory _universitas, bytes32 _uniqueHash) public {\r\n        require(_id < nextIjazahId, \"Invalid Ijazah ID\");\r\n        ijazahs[_id].nama = _nama;\r\n        ijazahs[_id].ipk = _ipk;\r\n        ijazahs[_id].universitas = _universitas;\r\n        ijazahs[_id].uniqueHash = _uniqueHash;\r\n    }\r\n\r\n    function deleteIjazah(uint256 _id) public {\r\n        require(_id < nextIjazahId, \"Invalid Ijazah ID\");\r\n        delete ijazahs[_id];\r\n    }\r\n}",
  "sourcePath": "C:\\Users\\Rayyan Ramanda\\rg-ethereum\\contracts\\StorageIjazah.sol",
  "compiler": {
    "name": "solc",
    "version": "0.8.0+commit.c7dfd78e.Emscripten.clang"
  },
  "schemaVersion": "3.4.13",
  "updatedAt": "2023-05-31T03:50:37.041Z",
  "devdoc": {
    "kind": "dev",
    "methods": {},
    "version": 1
  },
  "userdoc": {
    "kind": "user",
    "methods": {},
    "version": 1
  }
}