{
  "contractName": "StorageIjazah",
  "abi": [
    {
      "inputs": [
        {
          "internalType": "uint256",
          "name": "",
          "type": "uint256"
        }
      ],
      "name": "ijazahs",
      "outputs": [
        {
          "internalType": "uint256",
          "name": "id",
          "type": "uint256"
        },
        {
          "internalType": "string",
          "name": "nama",
          "type": "string"
        },
        {
          "internalType": "uint256",
          "name": "ipk",
          "type": "uint256"
        },
        {
          "internalType": "string",
          "name": "universitas",
          "type": "string"
        },
        {
          "internalType": "bytes32",
          "name": "txHash",
          "type": "bytes32"
        }
      ],
      "stateMutability": "view",
      "type": "function"
    },
    {
      "inputs": [],
      "name": "nextIjazahId",
      "outputs": [
        {
          "internalType": "uint256",
          "name": "",
          "type": "uint256"
        }
      ],
      "stateMutability": "view",
      "type": "function"
    },
    {
      "inputs": [
        {
          "internalType": "string",
          "name": "_nama",
          "type": "string"
        },
        {
          "internalType": "uint256",
          "name": "_ipk",
          "type": "uint256"
        },
        {
          "internalType": "string",
          "name": "_universitas",
          "type": "string"
        }
      ],
      "name": "createIjazah",
      "outputs": [],
      "stateMutability": "nonpayable",
      "type": "function"
    },
    {
      "inputs": [],
      "name": "getAllIjazahs",
      "outputs": [
        {
          "components": [
            {
              "internalType": "uint256",
              "name": "id",
              "type": "uint256"
            },
            {
              "internalType": "string",
              "name": "nama",
              "type": "string"
            },
            {
              "internalType": "uint256",
              "name": "ipk",
              "type": "uint256"
            },
            {
              "internalType": "string",
              "name": "universitas",
              "type": "string"
            },
            {
              "internalType": "bytes32",
              "name": "txHash",
              "type": "bytes32"
            }
          ],
          "internalType": "struct StorageIjazah.IjazahData[]",
          "name": "",
          "type": "tuple[]"
        }
      ],
      "stateMutability": "view",
      "type": "function"
    },
    {
      "inputs": [
        {
          "internalType": "uint256",
          "name": "_id",
          "type": "uint256"
        },
        {
          "internalType": "bytes32",
          "name": "_txHash",
          "type": "bytes32"
        }
      ],
      "name": "getIjazahByIdAndTxHash",
      "outputs": [
        {
          "internalType": "string",
          "name": "",
          "type": "string"
        },
        {
          "internalType": "uint256",
          "name": "",
          "type": "uint256"
        },
        {
          "internalType": "string",
          "name": "",
          "type": "string"
        }
      ],
      "stateMutability": "view",
      "type": "function"
    },
    {
      "inputs": [
        {
          "internalType": "uint256",
          "name": "_id",
          "type": "uint256"
        },
        {
          "internalType": "bytes32",
          "name": "_txHash",
          "type": "bytes32"
        }
      ],
      "name": "updateTxHash",
      "outputs": [],
      "stateMutability": "nonpayable",
      "type": "function"
    },
    {
      "inputs": [
        {
          "internalType": "uint256",
          "name": "_id",
          "type": "uint256"
        },
        {
          "internalType": "string",
          "name": "_nama",
          "type": "string"
        }
      ],
      "name": "updateNama",
      "outputs": [],
      "stateMutability": "nonpayable",
      "type": "function"
    }
  ],
  "bytecode": "0x6080604052600060015534801561001557600080fd5b50610c80806100256000396000f3fe608060405234801561001057600080fd5b506004361061007d5760003560e01c8063744b10491161005b578063744b1049146100e6578063c180e5cc146100fb578063c4e09ffb1461010e578063c567350f146101235761007d565b8063022b42e514610082578063316f35dd146100975780633984910c146100c2575b600080fd5b610095610090366004610977565b610136565b005b6100aa6100a5366004610956565b610188565b6040516100b993929190610acd565b60405180910390f35b6100d56100d036600461093e565b610322565b6040516100b9959493929190610b6d565b6100ee610461565b6040516100b99190610a29565b610095610109366004610956565b610674565b6101166106aa565b6040516100b99190610b64565b6100956101313660046108d4565b6106b0565b60015482106101605760405162461bcd60e51b815260040161015790610b02565b60405180910390fd5b600082815260208181526040909120825161018392600190920191840190610788565b505050565b60606000606060015485106101af5760405162461bcd60e51b815260040161015790610b02565b60008581526020819052604090206004015484146101df5760405162461bcd60e51b815260040161015790610b2d565b60008581526020819052604090206002810154600182018054909260030190839061020990610bc8565b80601f016020809104026020016040519081016040528092919081815260200182805461023590610bc8565b80156102825780601f1061025757610100808354040283529160200191610282565b820191906000526020600020905b81548152906001019060200180831161026557829003601f168201915b5050505050925080805461029590610bc8565b80601f01602080910402602001604051908101604052809291908181526020018280546102c190610bc8565b801561030e5780601f106102e35761010080835404028352916020019161030e565b820191906000526020600020905b8154815290600101906020018083116102f157829003601f168201915b505050505090509250925092509250925092565b6000602081905290815260409020805460018201805491929161034490610bc8565b80601f016020809104026020016040519081016040528092919081815260200182805461037090610bc8565b80156103bd5780601f10610392576101008083540402835291602001916103bd565b820191906000526020600020905b8154815290600101906020018083116103a057829003601f168201915b5050505050908060020154908060030180546103d890610bc8565b80601f016020809104026020016040519081016040528092919081815260200182805461040490610bc8565b80156104515780601f1061042657610100808354040283529160200191610451565b820191906000526020600020905b81548152906001019060200180831161043457829003601f168201915b5050505050908060040154905085565b6060600060015467ffffffffffffffff81111561048e57634e487b7160e01b600052604160045260246000fd5b6040519080825280602002602001820160405280156104c757816020015b6104b461080c565b8152602001906001900390816104ac5790505b50905060005b60015481101561066e5760008181526020818152604091829020825160a0810190935280548352600181018054919284019161050890610bc8565b80601f016020809104026020016040519081016040528092919081815260200182805461053490610bc8565b80156105815780601f1061055657610100808354040283529160200191610581565b820191906000526020600020905b81548152906001019060200180831161056457829003601f168201915b50505050508152602001600282015481526020016003820180546105a490610bc8565b80601f01602080910402602001604051908101604052809291908181526020018280546105d090610bc8565b801561061d5780601f106105f25761010080835404028352916020019161061d565b820191906000526020600020905b81548152906001019060200180831161060057829003601f168201915b5050505050815260200160048201548152505082828151811061065057634e487b7160e01b600052603260045260246000fd5b6020026020010181905250808061066690610c03565b9150506104cd565b50905090565b60015482106106955760405162461bcd60e51b815260040161015790610b02565b60009182526020829052604090912060040155565b60015481565b6000336106be600143610bb1565b406040516020016106d0929190610a07565b60408051601f19818403018152828252805160209182012060a084018352600180548086528584018a81528686018a90526060870189905260808701849052600091825281855294902085518155935180519296508594936107389392850192910190610788565b50604082015160028201556060820151805161075e916003840191602090910190610788565b50608091909101516004909101556001805490600061077c83610c03565b91905055505050505050565b82805461079490610bc8565b90600052602060002090601f0160209004810192826107b657600085556107fc565b82601f106107cf57805160ff19168380011785556107fc565b828001600101855582156107fc579182015b828111156107fc5782518255916020019190600101906107e1565b5061080892915061083e565b5090565b6040518060a0016040528060008152602001606081526020016000815260200160608152602001600080191681525090565b5b80821115610808576000815560010161083f565b600082601f830112610863578081fd5b813567ffffffffffffffff8082111561087e5761087e610c34565b604051601f8301601f1916810160200182811182821017156108a2576108a2610c34565b6040528281528483016020018610156108b9578384fd5b82602086016020830137918201602001929092529392505050565b6000806000606084860312156108e8578283fd5b833567ffffffffffffffff808211156108ff578485fd5b61090b87838801610853565b9450602086013593506040860135915080821115610927578283fd5b5061093486828701610853565b9150509250925092565b60006020828403121561094f578081fd5b5035919050565b60008060408385031215610968578182fd5b50508035926020909101359150565b60008060408385031215610989578182fd5b82359150602083013567ffffffffffffffff8111156109a6578182fd5b6109b285828601610853565b9150509250929050565b60008151808452815b818110156109e1576020818501810151868301820152016109c5565b818111156109f25782602083870101525b50601f01601f19169290920160200192915050565b60609290921b6bffffffffffffffffffffffff19168252601482015260340190565b60208082528251828201819052600091906040908185019080840286018301878501865b83811015610abf57603f19898403018552815160a08151855288820151818a870152610a7b828701826109bc565b915050878201518886015260608083015186830382880152610a9d83826109bc565b6080948501519790940196909652505094870194925090860190600101610a4d565b509098975050505050505050565b600060608252610ae060608301866109bc565b8460208401528281036040840152610af881856109bc565b9695505050505050565b602080825260119082015270125b9d985b1a5908125a985e985a081251607a1b604082015260600190565b6020808252601f908201527f5472616e73616374696f6e206861736820646f6573206e6f74206d6174636800604082015260600190565b90815260200190565b600086825260a06020830152610b8660a08301876109bc565b8560408401528281036060840152610b9e81866109bc565b9150508260808301529695505050505050565b600082821015610bc357610bc3610c1e565b500390565b600281046001821680610bdc57607f821691505b60208210811415610bfd57634e487b7160e01b600052602260045260246000fd5b50919050565b6000600019821415610c1757610c17610c1e565b5060010190565b634e487b7160e01b600052601160045260246000fd5b634e487b7160e01b600052604160045260246000fdfea264697066735822122073b48b7d5b5d2594f95d293e43b68706eccfe55fa0266fe5aba73f886416b68a64736f6c63430008000033",
  "immutableReferences": {},
  "source": "// SPDX-License-Identifier: MIT\r\npragma solidity ^0.8.0;\r\n\r\ncontract StorageIjazah {\r\n    struct IjazahData {\r\n        uint256 id;\r\n        string nama;\r\n        uint256 ipk;\r\n        string universitas;\r\n        bytes32 txHash;\r\n    }\r\n\r\n    mapping (uint256 => IjazahData) public ijazahs;\r\n    uint256 public nextIjazahId = 0;\r\n\r\n    function createIjazah(string memory _nama, uint256 _ipk, string memory _universitas) public {\r\n        bytes32 txHash = keccak256(abi.encodePacked(msg.sender, blockhash(block.number - 1)));\r\n        IjazahData memory newIjazah = IjazahData({\r\n            id: nextIjazahId,\r\n            nama: _nama,\r\n            ipk: _ipk,\r\n            universitas: _universitas,\r\n            txHash: txHash\r\n        });\r\n        ijazahs[nextIjazahId] = newIjazah;\r\n        nextIjazahId++;\r\n    }\r\n\r\n    function getAllIjazahs() public view returns (IjazahData[] memory) {\r\n        IjazahData[] memory allIjazahs = new IjazahData[](nextIjazahId);\r\n        for (uint256 i = 0; i < nextIjazahId; i++) {\r\n            allIjazahs[i] = ijazahs[i];\r\n        }\r\n        return allIjazahs;\r\n    }\r\n\r\n    function getIjazahByIdAndTxHash(uint256 _id, bytes32 _txHash) public view returns (string memory, uint256, string memory) {\r\n        require(_id < nextIjazahId, \"Invalid Ijazah ID\");\r\n        require(ijazahs[_id].txHash == _txHash, \"Transaction hash does not match\");\r\n        return (ijazahs[_id].nama, ijazahs[_id].ipk, ijazahs[_id].universitas);\r\n    }\r\n\r\n        function updateTxHash(uint256 _id, bytes32 _txHash) public {\r\n        require(_id < nextIjazahId, \"Invalid Ijazah ID\");\r\n        ijazahs[_id].txHash = _txHash;\r\n    }\r\n\r\n    function updateNama(uint256 _id, string memory _nama) public {\r\n        require(_id < nextIjazahId, \"Invalid Ijazah ID\");\r\n        ijazahs[_id].nama = _nama;\r\n    }\r\n\r\n}",
  "sourcePath": "C:\\Users\\Rayyan Ramanda\\rg-ethereum\\contracts\\StorageIjazah.sol",
  "compiler": {
    "name": "solc",
    "version": "0.8.0+commit.c7dfd78e.Emscripten.clang"
  },
  "schemaVersion": "3.4.13",
  "updatedAt": "2023-04-04T03:58:32.634Z",
  "devdoc": {
    "kind": "dev",
    "methods": {},
    "version": 1
  },
  "userdoc": {
    "kind": "user",
    "methods": {},
    "version": 1
  }
}