{
  "contractName": "StorageIjazah",
  "abi": [
    {
      "inputs": [
        {
          "internalType": "uint256",
          "name": "",
          "type": "uint256"
        }
      ],
      "name": "ijazahs",
      "outputs": [
        {
          "internalType": "uint256",
          "name": "id",
          "type": "uint256"
        },
        {
          "internalType": "string",
          "name": "nama",
          "type": "string"
        },
        {
          "internalType": "string",
          "name": "ipk",
          "type": "string"
        },
        {
          "internalType": "string",
          "name": "universitas",
          "type": "string"
        },
        {
          "internalType": "bytes32",
          "name": "txHash",
          "type": "bytes32"
        }
      ],
      "stateMutability": "view",
      "type": "function",
      "constant": true
    },
    {
      "inputs": [],
      "name": "nextIjazahId",
      "outputs": [
        {
          "internalType": "uint256",
          "name": "",
          "type": "uint256"
        }
      ],
      "stateMutability": "view",
      "type": "function",
      "constant": true
    },
    {
      "inputs": [
        {
          "internalType": "string",
          "name": "_nama",
          "type": "string"
        },
        {
          "internalType": "string",
          "name": "_ipk",
          "type": "string"
        },
        {
          "internalType": "string",
          "name": "_universitas",
          "type": "string"
        }
      ],
      "name": "createIjazah",
      "outputs": [],
      "stateMutability": "nonpayable",
      "type": "function"
    },
    {
      "inputs": [],
      "name": "getAllIjazahs",
      "outputs": [
        {
          "components": [
            {
              "internalType": "uint256",
              "name": "id",
              "type": "uint256"
            },
            {
              "internalType": "string",
              "name": "nama",
              "type": "string"
            },
            {
              "internalType": "string",
              "name": "ipk",
              "type": "string"
            },
            {
              "internalType": "string",
              "name": "universitas",
              "type": "string"
            },
            {
              "internalType": "bytes32",
              "name": "txHash",
              "type": "bytes32"
            }
          ],
          "internalType": "struct StorageIjazah.IjazahData[]",
          "name": "",
          "type": "tuple[]"
        }
      ],
      "stateMutability": "view",
      "type": "function",
      "constant": true
    },
    {
      "inputs": [
        {
          "internalType": "uint256",
          "name": "_id",
          "type": "uint256"
        },
        {
          "internalType": "bytes32",
          "name": "_txHash",
          "type": "bytes32"
        }
      ],
      "name": "getIjazahByIdAndTxHash",
      "outputs": [
        {
          "internalType": "string",
          "name": "",
          "type": "string"
        },
        {
          "internalType": "string",
          "name": "",
          "type": "string"
        },
        {
          "internalType": "string",
          "name": "",
          "type": "string"
        }
      ],
      "stateMutability": "view",
      "type": "function",
      "constant": true
    },
    {
      "inputs": [
        {
          "internalType": "uint256",
          "name": "_id",
          "type": "uint256"
        },
        {
          "internalType": "bytes32",
          "name": "_txHash",
          "type": "bytes32"
        }
      ],
      "name": "updateTxHash",
      "outputs": [],
      "stateMutability": "nonpayable",
      "type": "function"
    },
    {
      "inputs": [
        {
          "internalType": "uint256",
          "name": "_id",
          "type": "uint256"
        },
        {
          "internalType": "string",
          "name": "_nama",
          "type": "string"
        }
      ],
      "name": "updateNama",
      "outputs": [],
      "stateMutability": "nonpayable",
      "type": "function"
    },
    {
      "inputs": [
        {
          "internalType": "uint256",
          "name": "_id",
          "type": "uint256"
        },
        {
          "internalType": "string",
          "name": "_nama",
          "type": "string"
        },
        {
          "internalType": "string",
          "name": "_ipk",
          "type": "string"
        },
        {
          "internalType": "string",
          "name": "_universitas",
          "type": "string"
        },
        {
          "internalType": "bytes32",
          "name": "_txHash",
          "type": "bytes32"
        }
      ],
      "name": "updateData",
      "outputs": [],
      "stateMutability": "nonpayable",
      "type": "function"
    }
  ],
  "bytecode": "0x6080604052600060015534801561001557600080fd5b50610fd1806100256000396000f3fe608060405234801561001057600080fd5b50600436106100885760003560e01c8063744b10491161005b578063744b104914610104578063b9867cbf14610119578063c180e5cc1461012c578063c4e09ffb1461013f57610088565b8063022b42e51461008d578063316f35dd146100a25780633984910c146100cd5780636a409761146100f1575b600080fd5b6100a061009b366004610c06565b610154565b005b6100b56100b0366004610be5565b6101a6565b6040516100c493929190610e02565b60405180910390f35b6100e06100db366004610bcd565b6103cd565b6040516100c4959493929190610eb0565b6100a06100ff366004610c4b565b610594565b61010c61063c565b6040516100c49190610d4e565b6100a0610127366004610b49565b6108d7565b6100a061013a366004610be5565b6109c1565b6101476109f7565b6040516100c49190610ea7565b600154821061017e5760405162461bcd60e51b815260040161017590610e45565b60405180910390fd5b60008281526020818152604090912082516101a1926001909201918401906109fd565b505050565b606080606060015485106101cc5760405162461bcd60e51b815260040161017590610e45565b60008581526020819052604090206004015484146101fc5760405162461bcd60e51b815260040161017590610e70565b600085815260208190526040902060018101805490916002810191600390910190839061022890610f19565b80601f016020809104026020016040519081016040528092919081815260200182805461025490610f19565b80156102a15780601f10610276576101008083540402835291602001916102a1565b820191906000526020600020905b81548152906001019060200180831161028457829003601f168201915b505050505092508180546102b490610f19565b80601f01602080910402602001604051908101604052809291908181526020018280546102e090610f19565b801561032d5780601f106103025761010080835404028352916020019161032d565b820191906000526020600020905b81548152906001019060200180831161031057829003601f168201915b5050505050915080805461034090610f19565b80601f016020809104026020016040519081016040528092919081815260200182805461036c90610f19565b80156103b95780601f1061038e576101008083540402835291602001916103b9565b820191906000526020600020905b81548152906001019060200180831161039c57829003601f168201915b505050505090509250925092509250925092565b600060208190529081526040902080546001820180549192916103ef90610f19565b80601f016020809104026020016040519081016040528092919081815260200182805461041b90610f19565b80156104685780601f1061043d57610100808354040283529160200191610468565b820191906000526020600020905b81548152906001019060200180831161044b57829003601f168201915b50505050509080600201805461047d90610f19565b80601f01602080910402602001604051908101604052809291908181526020018280546104a990610f19565b80156104f65780601f106104cb576101008083540402835291602001916104f6565b820191906000526020600020905b8154815290600101906020018083116104d957829003601f168201915b50505050509080600301805461050b90610f19565b80601f016020809104026020016040519081016040528092919081815260200182805461053790610f19565b80156105845780601f1061055957610100808354040283529160200191610584565b820191906000526020600020905b81548152906001019060200180831161056757829003601f168201915b5050505050908060040154905085565b60015485106105b55760405162461bcd60e51b815260040161017590610e45565b60008581526020818152604090912085516105d8926001909201918701906109fd565b5060008581526020818152604090912084516105fc926002909201918601906109fd565b506000858152602081815260409091208351610620926003909201918501906109fd565b5060009485526020859052604090942060040193909355505050565b6060600060015467ffffffffffffffff81111561066957634e487b7160e01b600052604160045260246000fd5b6040519080825280602002602001820160405280156106a257816020015b61068f610a81565b8152602001906001900390816106875790505b50905060005b6001548110156108d15760008181526020818152604091829020825160a081019093528054835260018101805491928401916106e390610f19565b80601f016020809104026020016040519081016040528092919081815260200182805461070f90610f19565b801561075c5780601f106107315761010080835404028352916020019161075c565b820191906000526020600020905b81548152906001019060200180831161073f57829003601f168201915b5050505050815260200160028201805461077590610f19565b80601f01602080910402602001604051908101604052809291908181526020018280546107a190610f19565b80156107ee5780601f106107c3576101008083540402835291602001916107ee565b820191906000526020600020905b8154815290600101906020018083116107d157829003601f168201915b5050505050815260200160038201805461080790610f19565b80601f016020809104026020016040519081016040528092919081815260200182805461083390610f19565b80156108805780601f1061085557610100808354040283529160200191610880565b820191906000526020600020905b81548152906001019060200180831161086357829003601f168201915b505050505081526020016004820154815250508282815181106108b357634e487b7160e01b600052603260045260246000fd5b602002602001018190525080806108c990610f54565b9150506106a8565b50905090565b6000336108e5600143610f02565b406040516020016108f7929190610d2c565b60408051601f19818403018152828252805160209182012060a084018352600180548086528584018a81528686018a905260608701899052608087018490526000918252818552949020855181559351805192965085949361095f93928501929101906109fd565b506040820151805161097b9160028401916020909101906109fd565b50606082015180516109979160038401916020909101906109fd565b5060809190910151600490910155600180549060006109b583610f54565b91905055505050505050565b60015482106109e25760405162461bcd60e51b815260040161017590610e45565b60009182526020829052604090912060040155565b60015481565b828054610a0990610f19565b90600052602060002090601f016020900481019282610a2b5760008555610a71565b82601f10610a4457805160ff1916838001178555610a71565b82800160010185558215610a71579182015b82811115610a71578251825591602001919060010190610a56565b50610a7d929150610ab3565b5090565b6040518060a0016040528060008152602001606081526020016060815260200160608152602001600080191681525090565b5b80821115610a7d5760008155600101610ab4565b600082601f830112610ad8578081fd5b813567ffffffffffffffff80821115610af357610af3610f85565b604051601f8301601f191681016020018281118282101715610b1757610b17610f85565b604052828152848301602001861015610b2e578384fd5b82602086016020830137918201602001929092529392505050565b600080600060608486031215610b5d578283fd5b833567ffffffffffffffff80821115610b74578485fd5b610b8087838801610ac8565b94506020860135915080821115610b95578384fd5b610ba187838801610ac8565b93506040860135915080821115610bb6578283fd5b50610bc386828701610ac8565b9150509250925092565b600060208284031215610bde578081fd5b5035919050565b60008060408385031215610bf7578182fd5b50508035926020909101359150565b60008060408385031215610c18578182fd5b82359150602083013567ffffffffffffffff811115610c35578182fd5b610c4185828601610ac8565b9150509250929050565b600080600080600060a08688031215610c62578081fd5b85359450602086013567ffffffffffffffff80821115610c80578283fd5b610c8c89838a01610ac8565b95506040880135915080821115610ca1578283fd5b610cad89838a01610ac8565b94506060880135915080821115610cc2578283fd5b50610ccf88828901610ac8565b95989497509295608001359392505050565b60008151808452815b81811015610d0657602081850181015186830182015201610cea565b81811115610d175782602083870101525b50601f01601f19169290920160200192915050565b60609290921b6bffffffffffffffffffffffff19168252601482015260340190565b60208082528251828201819052600091906040908185019080840286018301878501865b83811015610df457603f19898403018552815160a08151855288820151818a870152610da082870182610ce1565b9150508782015185820389870152610db88282610ce1565b91505060608083015186830382880152610dd28382610ce1565b6080948501519790940196909652505094870194925090860190600101610d72565b509098975050505050505050565b600060608252610e156060830186610ce1565b8281036020840152610e278186610ce1565b90508281036040840152610e3b8185610ce1565b9695505050505050565b602080825260119082015270125b9d985b1a5908125a985e985a081251607a1b604082015260600190565b6020808252601f908201527f5472616e73616374696f6e206861736820646f6573206e6f74206d6174636800604082015260600190565b90815260200190565b600086825260a06020830152610ec960a0830187610ce1565b8281036040840152610edb8187610ce1565b90508281036060840152610eef8186610ce1565b9150508260808301529695505050505050565b600082821015610f1457610f14610f6f565b500390565b600281046001821680610f2d57607f821691505b60208210811415610f4e57634e487b7160e01b600052602260045260246000fd5b50919050565b6000600019821415610f6857610f68610f6f565b5060010190565b634e487b7160e01b600052601160045260246000fd5b634e487b7160e01b600052604160045260246000fdfea26469706673582212205cbdcac0fe077974898cffe325db46cffb448f30d4456e09e7ee8de05b454f5c64736f6c63430008000033",
  "immutableReferences": {},
  "source": "// SPDX-License-Identifier: MIT\r\npragma solidity ^0.8.0;\r\n\r\ncontract StorageIjazah {\r\n    struct IjazahData {\r\n        uint256 id;\r\n        string nama;\r\n        string ipk;\r\n        string universitas;\r\n        bytes32 txHash;\r\n    }\r\n\r\n    mapping (uint256 => IjazahData) public ijazahs;\r\n    uint256 public nextIjazahId = 0;\r\n\r\n    function createIjazah(string memory _nama, string memory _ipk, string memory _universitas) public {\r\n        bytes32 txHash = keccak256(abi.encodePacked(msg.sender, blockhash(block.number - 1)));\r\n        IjazahData memory newIjazah = IjazahData({\r\n            id: nextIjazahId,\r\n            nama: _nama,\r\n            ipk: _ipk,\r\n            universitas: _universitas,\r\n            txHash: txHash\r\n        });\r\n        ijazahs[nextIjazahId] = newIjazah;\r\n        nextIjazahId++;\r\n    }\r\n\r\n    function getAllIjazahs() public view returns (IjazahData[] memory) {\r\n        IjazahData[] memory allIjazahs = new IjazahData[](nextIjazahId);\r\n        for (uint256 i = 0; i < nextIjazahId; i++) {\r\n            allIjazahs[i] = ijazahs[i];\r\n        }\r\n        return allIjazahs;\r\n    }\r\n\r\n    function getIjazahByIdAndTxHash(uint256 _id, bytes32 _txHash) public view returns (string memory, string memory, string memory) {\r\n        require(_id < nextIjazahId, \"Invalid Ijazah ID\");\r\n        require(ijazahs[_id].txHash == _txHash, \"Transaction hash does not match\");\r\n        return (ijazahs[_id].nama, ijazahs[_id].ipk, ijazahs[_id].universitas);\r\n    }\r\n\r\n    function updateTxHash(uint256 _id, bytes32 _txHash) public {\r\n        require(_id < nextIjazahId, \"Invalid Ijazah ID\");\r\n        ijazahs[_id].txHash = _txHash;\r\n    }\r\n\r\n    function updateNama(uint256 _id, string memory _nama) public {\r\n        require(_id < nextIjazahId, \"Invalid Ijazah ID\");\r\n        ijazahs[_id].nama = _nama;\r\n    }\r\n    function updateData(uint256 _id, string memory _nama, string memory _ipk, string memory _universitas, bytes32 _txHash) public {\r\n        require(_id < nextIjazahId, \"Invalid Ijazah ID\");\r\n        ijazahs[_id].nama = _nama;\r\n        ijazahs[_id].ipk = _ipk;\r\n        ijazahs[_id].universitas = _universitas;\r\n        ijazahs[_id].txHash = _txHash;\r\n    }\r\n    \r\n}",
  "sourcePath": "C:\\Users\\Rayyan Ramanda\\rg-ethereum\\contracts\\StorageIjazah.sol",
  "compiler": {
    "name": "solc",
    "version": "0.8.0+commit.c7dfd78e.Emscripten.clang"
  },
  "schemaVersion": "3.4.13",
  "updatedAt": "2023-04-06T11:32:34.078Z",
  "networkType": "ethereum",
  "devdoc": {
    "kind": "dev",
    "methods": {},
    "version": 1
  },
  "userdoc": {
    "kind": "user",
    "methods": {},
    "version": 1
  }
}